{
    "_format": "hh-sol-artifact-1",
    "contractName": "SmoothApe",
    "sourceName": "contracts/SmoothApe.sol",
    "abi": [
        {
            "inputs": [
                {
                    "internalType": "string",
                    "name": "_name",
                    "type": "string"
                },
                {
                    "internalType": "string",
                    "name": "_symbol",
                    "type": "string"
                },
                {
                    "internalType": "string",
                    "name": "_initBaseURI",
                    "type": "string"
                },
                {
                    "internalType": "string",
                    "name": "_initNotRevealedUri",
                    "type": "string"
                }
            ],
            "stateMutability": "nonpayable",
            "type": "constructor"
        },
        {
            "anonymous": false,
            "inputs": [
                {
                    "indexed": true,
                    "internalType": "address",
                    "name": "owner",
                    "type": "address"
                },
                {
                    "indexed": true,
                    "internalType": "address",
                    "name": "approved",
                    "type": "address"
                },
                {
                    "indexed": true,
                    "internalType": "uint256",
                    "name": "tokenId",
                    "type": "uint256"
                }
            ],
            "name": "Approval",
            "type": "event"
        },
        {
            "anonymous": false,
            "inputs": [
                {
                    "indexed": true,
                    "internalType": "address",
                    "name": "owner",
                    "type": "address"
                },
                {
                    "indexed": true,
                    "internalType": "address",
                    "name": "operator",
                    "type": "address"
                },
                {
                    "indexed": false,
                    "internalType": "bool",
                    "name": "approved",
                    "type": "bool"
                }
            ],
            "name": "ApprovalForAll",
            "type": "event"
        },
        {
            "anonymous": false,
            "inputs": [
                {
                    "indexed": false,
                    "internalType": "address",
                    "name": "sender",
                    "type": "address"
                },
                {
                    "indexed": false,
                    "internalType": "uint256",
                    "name": "tokenId",
                    "type": "uint256"
                }
            ],
            "name": "EmitNFT",
            "type": "event"
        },
        {
            "anonymous": false,
            "inputs": [
                {
                    "indexed": true,
                    "internalType": "address",
                    "name": "previousOwner",
                    "type": "address"
                },
                {
                    "indexed": true,
                    "internalType": "address",
                    "name": "newOwner",
                    "type": "address"
                }
            ],
            "name": "OwnershipTransferred",
            "type": "event"
        },
        {
            "anonymous": false,
            "inputs": [
                {
                    "indexed": true,
                    "internalType": "address",
                    "name": "from",
                    "type": "address"
                },
                {
                    "indexed": true,
                    "internalType": "address",
                    "name": "to",
                    "type": "address"
                },
                {
                    "indexed": true,
                    "internalType": "uint256",
                    "name": "tokenId",
                    "type": "uint256"
                }
            ],
            "name": "Transfer",
            "type": "event"
        },
        {
            "inputs": [
                {
                    "internalType": "address",
                    "name": "to",
                    "type": "address"
                },
                {
                    "internalType": "uint256",
                    "name": "tokenId",
                    "type": "uint256"
                }
            ],
            "name": "approve",
            "outputs": [],
            "stateMutability": "nonpayable",
            "type": "function"
        },
        {
            "inputs": [
                {
                    "internalType": "address",
                    "name": "owner",
                    "type": "address"
                }
            ],
            "name": "balanceOf",
            "outputs": [
                {
                    "internalType": "uint256",
                    "name": "",
                    "type": "uint256"
                }
            ],
            "stateMutability": "view",
            "type": "function"
        },
        {
            "inputs": [],
            "name": "baseExtension",
            "outputs": [
                {
                    "internalType": "string",
                    "name": "",
                    "type": "string"
                }
            ],
            "stateMutability": "view",
            "type": "function"
        },
        {
            "inputs": [],
            "name": "baseURI",
            "outputs": [
                {
                    "internalType": "string",
                    "name": "",
                    "type": "string"
                }
            ],
            "stateMutability": "view",
            "type": "function"
        },
        {
            "inputs": [],
            "name": "costPrice",
            "outputs": [
                {
                    "internalType": "uint256",
                    "name": "",
                    "type": "uint256"
                }
            ],
            "stateMutability": "view",
            "type": "function"
        },
        {
            "inputs": [
                {
                    "internalType": "uint256",
                    "name": "tokenId",
                    "type": "uint256"
                }
            ],
            "name": "getApproved",
            "outputs": [
                {
                    "internalType": "address",
                    "name": "",
                    "type": "address"
                }
            ],
            "stateMutability": "view",
            "type": "function"
        },
        {
            "inputs": [],
            "name": "getCostPrice",
            "outputs": [
                {
                    "internalType": "uint256",
                    "name": "",
                    "type": "uint256"
                }
            ],
            "stateMutability": "view",
            "type": "function"
        },
        {
            "inputs": [
                {
                    "internalType": "address",
                    "name": "owner",
                    "type": "address"
                },
                {
                    "internalType": "address",
                    "name": "operator",
                    "type": "address"
                }
            ],
            "name": "isApprovedForAll",
            "outputs": [
                {
                    "internalType": "bool",
                    "name": "",
                    "type": "bool"
                }
            ],
            "stateMutability": "view",
            "type": "function"
        },
        {
            "inputs": [],
            "name": "maxMintNft",
            "outputs": [
                {
                    "internalType": "uint256",
                    "name": "",
                    "type": "uint256"
                }
            ],
            "stateMutability": "view",
            "type": "function"
        },
        {
            "inputs": [],
            "name": "maxSupply",
            "outputs": [
                {
                    "internalType": "uint256",
                    "name": "",
                    "type": "uint256"
                }
            ],
            "stateMutability": "view",
            "type": "function"
        },
        {
            "inputs": [],
            "name": "mintApe",
            "outputs": [],
            "stateMutability": "payable",
            "type": "function"
        },
        {
            "inputs": [
                {
                    "internalType": "address",
                    "name": "_to",
                    "type": "address"
                },
                {
                    "internalType": "uint256",
                    "name": "_mintAmount",
                    "type": "uint256"
                }
            ],
            "name": "mintApeTo",
            "outputs": [],
            "stateMutability": "nonpayable",
            "type": "function"
        },
        {
            "inputs": [],
            "name": "name",
            "outputs": [
                {
                    "internalType": "string",
                    "name": "",
                    "type": "string"
                }
            ],
            "stateMutability": "view",
            "type": "function"
        },
        {
            "inputs": [],
            "name": "notRevealedUri",
            "outputs": [
                {
                    "internalType": "string",
                    "name": "",
                    "type": "string"
                }
            ],
            "stateMutability": "view",
            "type": "function"
        },
        {
            "inputs": [],
            "name": "owner",
            "outputs": [
                {
                    "internalType": "address",
                    "name": "",
                    "type": "address"
                }
            ],
            "stateMutability": "view",
            "type": "function"
        },
        {
            "inputs": [
                {
                    "internalType": "uint256",
                    "name": "tokenId",
                    "type": "uint256"
                }
            ],
            "name": "ownerOf",
            "outputs": [
                {
                    "internalType": "address",
                    "name": "",
                    "type": "address"
                }
            ],
            "stateMutability": "view",
            "type": "function"
        },
        {
            "inputs": [],
            "name": "pause",
            "outputs": [],
            "stateMutability": "nonpayable",
            "type": "function"
        },
        {
            "inputs": [],
            "name": "paused",
            "outputs": [
                {
                    "internalType": "bool",
                    "name": "",
                    "type": "bool"
                }
            ],
            "stateMutability": "view",
            "type": "function"
        },
        {
            "inputs": [],
            "name": "preSaleTokenPrice",
            "outputs": [
                {
                    "internalType": "uint256",
                    "name": "",
                    "type": "uint256"
                }
            ],
            "stateMutability": "view",
            "type": "function"
        },
        {
            "inputs": [],
            "name": "presale",
            "outputs": [
                {
                    "internalType": "bool",
                    "name": "",
                    "type": "bool"
                }
            ],
            "stateMutability": "view",
            "type": "function"
        },
        {
            "inputs": [],
            "name": "presaleEnd",
            "outputs": [
                {
                    "internalType": "uint256",
                    "name": "",
                    "type": "uint256"
                }
            ],
            "stateMutability": "view",
            "type": "function"
        },
        {
            "inputs": [],
            "name": "renounceOwnership",
            "outputs": [],
            "stateMutability": "nonpayable",
            "type": "function"
        },
        {
            "inputs": [
                {
                    "internalType": "bool",
                    "name": "_reveal",
                    "type": "bool"
                }
            ],
            "name": "reveal",
            "outputs": [],
            "stateMutability": "nonpayable",
            "type": "function"
        },
        {
            "inputs": [],
            "name": "revealed",
            "outputs": [
                {
                    "internalType": "bool",
                    "name": "",
                    "type": "bool"
                }
            ],
            "stateMutability": "view",
            "type": "function"
        },
        {
            "inputs": [
                {
                    "internalType": "uint256",
                    "name": "",
                    "type": "uint256"
                },
                {
                    "internalType": "uint256",
                    "name": "value",
                    "type": "uint256"
                }
            ],
            "name": "royaltyInfo",
            "outputs": [
                {
                    "internalType": "address",
                    "name": "receiver",
                    "type": "address"
                },
                {
                    "internalType": "uint256",
                    "name": "royaltyAmount",
                    "type": "uint256"
                }
            ],
            "stateMutability": "view",
            "type": "function"
        },
        {
            "inputs": [
                {
                    "internalType": "address",
                    "name": "from",
                    "type": "address"
                },
                {
                    "internalType": "address",
                    "name": "to",
                    "type": "address"
                },
                {
                    "internalType": "uint256",
                    "name": "tokenId",
                    "type": "uint256"
                }
            ],
            "name": "safeTransferFrom",
            "outputs": [],
            "stateMutability": "nonpayable",
            "type": "function"
        },
        {
            "inputs": [
                {
                    "internalType": "address",
                    "name": "from",
                    "type": "address"
                },
                {
                    "internalType": "address",
                    "name": "to",
                    "type": "address"
                },
                {
                    "internalType": "uint256",
                    "name": "tokenId",
                    "type": "uint256"
                },
                {
                    "internalType": "bytes",
                    "name": "_data",
                    "type": "bytes"
                }
            ],
            "name": "safeTransferFrom",
            "outputs": [],
            "stateMutability": "nonpayable",
            "type": "function"
        },
        {
            "inputs": [
                {
                    "internalType": "address",
                    "name": "operator",
                    "type": "address"
                },
                {
                    "internalType": "bool",
                    "name": "approved",
                    "type": "bool"
                }
            ],
            "name": "setApprovalForAll",
            "outputs": [],
            "stateMutability": "nonpayable",
            "type": "function"
        },
        {
            "inputs": [
                {
                    "internalType": "string",
                    "name": "_newBaseURI",
                    "type": "string"
                }
            ],
            "name": "setBaseURI",
            "outputs": [],
            "stateMutability": "nonpayable",
            "type": "function"
        },
        {
            "inputs": [
                {
                    "internalType": "uint256",
                    "name": "_preSaleTokenPrice",
                    "type": "uint256"
                },
                {
                    "internalType": "uint256",
                    "name": "_publicTokenPrice",
                    "type": "uint256"
                }
            ],
            "name": "setCost",
            "outputs": [],
            "stateMutability": "nonpayable",
            "type": "function"
        },
        {
            "inputs": [
                {
                    "internalType": "string",
                    "name": "_newNotRevealedUri",
                    "type": "string"
                }
            ],
            "name": "setNotRevealedUri",
            "outputs": [],
            "stateMutability": "nonpayable",
            "type": "function"
        },
        {
            "inputs": [
                {
                    "internalType": "bool",
                    "name": "_presale",
                    "type": "bool"
                }
            ],
            "name": "setPresale",
            "outputs": [],
            "stateMutability": "nonpayable",
            "type": "function"
        },
        {
            "inputs": [
                {
                    "internalType": "address",
                    "name": "recipient",
                    "type": "address"
                },
                {
                    "internalType": "uint256",
                    "name": "value",
                    "type": "uint256"
                }
            ],
            "name": "setRoyalties",
            "outputs": [],
            "stateMutability": "nonpayable",
            "type": "function"
        },
        {
            "inputs": [
                {
                    "internalType": "uint256",
                    "name": "_tokenId",
                    "type": "uint256"
                },
                {
                    "internalType": "string",
                    "name": "_tokenURI",
                    "type": "string"
                }
            ],
            "name": "setTokenURI",
            "outputs": [],
            "stateMutability": "nonpayable",
            "type": "function"
        },
        {
            "inputs": [
                {
                    "internalType": "bytes4",
                    "name": "interfaceId",
                    "type": "bytes4"
                }
            ],
            "name": "supportsInterface",
            "outputs": [
                {
                    "internalType": "bool",
                    "name": "",
                    "type": "bool"
                }
            ],
            "stateMutability": "view",
            "type": "function"
        },
        {
            "inputs": [],
            "name": "symbol",
            "outputs": [
                {
                    "internalType": "string",
                    "name": "",
                    "type": "string"
                }
            ],
            "stateMutability": "view",
            "type": "function"
        },
        {
            "inputs": [
                {
                    "internalType": "uint256",
                    "name": "tokenId",
                    "type": "uint256"
                }
            ],
            "name": "tokenURI",
            "outputs": [
                {
                    "internalType": "string",
                    "name": "",
                    "type": "string"
                }
            ],
            "stateMutability": "view",
            "type": "function"
        },
        {
            "inputs": [
                {
                    "internalType": "address",
                    "name": "from",
                    "type": "address"
                },
                {
                    "internalType": "address",
                    "name": "to",
                    "type": "address"
                },
                {
                    "internalType": "uint256",
                    "name": "tokenId",
                    "type": "uint256"
                }
            ],
            "name": "transferFrom",
            "outputs": [],
            "stateMutability": "nonpayable",
            "type": "function"
        },
        {
            "inputs": [
                {
                    "internalType": "address",
                    "name": "newOwner",
                    "type": "address"
                }
            ],
            "name": "transferOwnership",
            "outputs": [],
            "stateMutability": "nonpayable",
            "type": "function"
        }
    ],
    "bytecode": "0x608060405266d529ae9e860000600a5567011c37937e080000600b55612710600c556040518060400160405280600581526020017f2e6a736f6e000000000000000000000000000000000000000000000000000000815250600f90805190602001906200006e929190620003cb565b506000601160006101000a81548160ff0219169083151502179055506001601160016101000a81548160ff0219169083151502179055506000601160026101000a81548160ff021916908315150217905550635cb7e4e3601255348015620000d557600080fd5b5060405162004e3638038062004e368339818101604052810190620000fb9190620004ed565b8383816000908051906020019062000115929190620003cb565b5080600190805190602001906200012e929190620003cb565b50505062000151620001456200017d60201b60201c565b6200018560201b60201c565b62000162826200024b60201b60201c565b6200017381620002f660201b60201c565b50505050620007b0565b600033905090565b6000600760009054906101000a900473ffffffffffffffffffffffffffffffffffffffff16905081600760006101000a81548173ffffffffffffffffffffffffffffffffffffffff021916908373ffffffffffffffffffffffffffffffffffffffff1602179055508173ffffffffffffffffffffffffffffffffffffffff168173ffffffffffffffffffffffffffffffffffffffff167f8be0079c531659141344cd1fd0a4f28419497f9722a3daafe3b4186f6b6457e060405160405180910390a35050565b6200025b6200017d60201b60201c565b73ffffffffffffffffffffffffffffffffffffffff1662000281620003a160201b60201c565b73ffffffffffffffffffffffffffffffffffffffff1614620002da576040517f08c379a0000000000000000000000000000000000000000000000000000000008152600401620002d190620005e4565b60405180910390fd5b80600e9080519060200190620002f2929190620003cb565b5050565b620003066200017d60201b60201c565b73ffffffffffffffffffffffffffffffffffffffff166200032c620003a160201b60201c565b73ffffffffffffffffffffffffffffffffffffffff161462000385576040517f08c379a00000000000000000000000000000000000000000000000000000000081526004016200037c90620005e4565b60405180910390fd5b80601090805190602001906200039d929190620003cb565b5050565b6000600760009054906101000a900473ffffffffffffffffffffffffffffffffffffffff16905090565b828054620003d990620006ac565b90600052602060002090601f016020900481019282620003fd576000855562000449565b82601f106200041857805160ff191683800117855562000449565b8280016001018555821562000449579182015b82811115620004485782518255916020019190600101906200042b565b5b5090506200045891906200045c565b5090565b5b80821115620004775760008160009055506001016200045d565b5090565b6000620004926200048c846200062f565b62000606565b905082815260208101848484011115620004ab57600080fd5b620004b884828562000676565b509392505050565b600082601f830112620004d257600080fd5b8151620004e48482602086016200047b565b91505092915050565b600080600080608085870312156200050457600080fd5b600085015167ffffffffffffffff8111156200051f57600080fd5b6200052d87828801620004c0565b945050602085015167ffffffffffffffff8111156200054b57600080fd5b6200055987828801620004c0565b935050604085015167ffffffffffffffff8111156200057757600080fd5b6200058587828801620004c0565b925050606085015167ffffffffffffffff811115620005a357600080fd5b620005b187828801620004c0565b91505092959194509250565b6000620005cc60208362000665565b9150620005d98262000787565b602082019050919050565b60006020820190508181036000830152620005ff81620005bd565b9050919050565b60006200061262000625565b9050620006208282620006e2565b919050565b6000604051905090565b600067ffffffffffffffff8211156200064d576200064c62000747565b5b620006588262000776565b9050602081019050919050565b600082825260208201905092915050565b60005b838110156200069657808201518184015260208101905062000679565b83811115620006a6576000848401525b50505050565b60006002820490506001821680620006c557607f821691505b60208210811415620006dc57620006db62000718565b5b50919050565b620006ed8262000776565b810181811067ffffffffffffffff821117156200070f576200070e62000747565b5b80604052505050565b7f4e487b7100000000000000000000000000000000000000000000000000000000600052602260045260246000fd5b7f4e487b7100000000000000000000000000000000000000000000000000000000600052604160045260246000fd5b6000601f19601f8301169050919050565b7f4f776e61626c653a2063616c6c6572206973206e6f7420746865206f776e6572600082015250565b61467680620007c06000396000f3fe6080604052600436106102305760003560e01c80637696e0881161012e578063b88d4fde116100ab578063c87b56dd1161006f578063c87b56dd146107e3578063d5abeb0114610820578063e985e9c51461084b578063f2fde38b14610888578063fdea8e0b146108b157610230565b8063b88d4fde14610712578063c15830191461073b578063c17ecd1214610766578063c54e73e31461078f578063c6682862146107b857610230565b8063940cd05b116100f2578063940cd05b1461066257806395d89b411461068b578063a22cb465146106b6578063a2592a55146106df578063b6d3d965146106e957610230565b80637696e088146105a35780637ed0802b146105cc5780638456cb59146105f75780638c7ea24b1461060e5780638da5cb5b1461063757610230565b8063389cc3bc116101bc5780636352211e116101805780636352211e146104bc5780636c0360eb146104f957806370a0823114610524578063715018a6146105615780637259bce31461057857610230565b8063389cc3bc146103e957806342842e0e14610414578063518302271461043d57806355f804b3146104685780635c975abb1461049157610230565b8063095ea7b311610203578063095ea7b314610305578063162094c41461032e578063229f3e291461035757806323b872dd146103825780632a55205a146103ab57610230565b806301ffc9a71461023557806306fdde0314610272578063081812fc1461029d578063081c8c44146102da575b600080fd5b34801561024157600080fd5b5061025c60048036038101906102579190613103565b6108dc565b60405161026991906137f7565b60405180910390f35b34801561027e57600080fd5b506102876108ee565b6040516102949190613812565b60405180910390f35b3480156102a957600080fd5b506102c460048036038101906102bf9190613196565b610980565b6040516102d19190613767565b60405180910390f35b3480156102e657600080fd5b506102ef610a05565b6040516102fc9190613812565b60405180910390f35b34801561031157600080fd5b5061032c6004803603810190610327919061309e565b610a93565b005b34801561033a57600080fd5b50610355600480360381019061035091906131bf565b610bab565b005b34801561036357600080fd5b5061036c610c35565b6040516103799190613b14565b60405180910390f35b34801561038e57600080fd5b506103a960048036038101906103a49190612f98565b610c3b565b005b3480156103b757600080fd5b506103d260048036038101906103cd9190613213565b610c9b565b6040516103e09291906137ce565b60405180910390f35b3480156103f557600080fd5b506103fe610d5b565b60405161040b9190613b14565b60405180910390f35b34801561042057600080fd5b5061043b60048036038101906104369190612f98565b610d61565b005b34801561044957600080fd5b50610452610d81565b60405161045f91906137f7565b60405180910390f35b34801561047457600080fd5b5061048f600480360381019061048a9190613155565b610d94565b005b34801561049d57600080fd5b506104a6610e2a565b6040516104b391906137f7565b60405180910390f35b3480156104c857600080fd5b506104e360048036038101906104de9190613196565b610e3d565b6040516104f09190613767565b60405180910390f35b34801561050557600080fd5b5061050e610eef565b60405161051b9190613812565b60405180910390f35b34801561053057600080fd5b5061054b60048036038101906105469190612f33565b610f7d565b6040516105589190613b14565b60405180910390f35b34801561056d57600080fd5b50610576611035565b005b34801561058457600080fd5b5061058d6110bd565b60405161059a9190613b14565b60405180910390f35b3480156105af57600080fd5b506105ca60048036038101906105c59190613213565b6110c3565b005b3480156105d857600080fd5b506105e1611151565b6040516105ee9190613b14565b60405180910390f35b34801561060357600080fd5b5061060c611157565b005b34801561061a57600080fd5b506106356004803603810190610630919061309e565b6111f0565b005b34801561064357600080fd5b5061064c61127a565b6040516106599190613767565b60405180910390f35b34801561066e57600080fd5b50610689600480360381019061068491906130da565b6112a4565b005b34801561069757600080fd5b506106a061133d565b6040516106ad9190613812565b60405180910390f35b3480156106c257600080fd5b506106dd60048036038101906106d89190613062565b6113cf565b005b6106e76113e5565b005b3480156106f557600080fd5b50610710600480360381019061070b919061309e565b6115dd565b005b34801561071e57600080fd5b5061073960048036038101906107349190612fe7565b61177a565b005b34801561074757600080fd5b506107506117dc565b60405161075d9190613b14565b60405180910390f35b34801561077257600080fd5b5061078d60048036038101906107889190613155565b6117e6565b005b34801561079b57600080fd5b506107b660048036038101906107b191906130da565b61187c565b005b3480156107c457600080fd5b506107cd611915565b6040516107da9190613812565b60405180910390f35b3480156107ef57600080fd5b5061080a60048036038101906108059190613196565b6119a3565b6040516108179190613812565b60405180910390f35b34801561082c57600080fd5b50610835611b3f565b6040516108429190613b14565b60405180910390f35b34801561085757600080fd5b50610872600480360381019061086d9190612f5c565b611b45565b60405161087f91906137f7565b60405180910390f35b34801561089457600080fd5b506108af60048036038101906108aa9190612f33565b611bd9565b005b3480156108bd57600080fd5b506108c6611cd1565b6040516108d391906137f7565b60405180910390f35b60006108e782611ce4565b9050919050565b6060600080546108fd90613dd9565b80601f016020809104026020016040519081016040528092919081815260200182805461092990613dd9565b80156109765780601f1061094b57610100808354040283529160200191610976565b820191906000526020600020905b81548152906001019060200180831161095957829003601f168201915b5050505050905090565b600061098b82611d5e565b6109ca576040517f08c379a00000000000000000000000000000000000000000000000000000000081526004016109c1906139f4565b60405180910390fd5b6004600083815260200190815260200160002060009054906101000a900473ffffffffffffffffffffffffffffffffffffffff169050919050565b60108054610a1290613dd9565b80601f0160208091040260200160405190810160405280929190818152602001828054610a3e90613dd9565b8015610a8b5780601f10610a6057610100808354040283529160200191610a8b565b820191906000526020600020905b815481529060010190602001808311610a6e57829003601f168201915b505050505081565b6000610a9e82610e3d565b90508073ffffffffffffffffffffffffffffffffffffffff168373ffffffffffffffffffffffffffffffffffffffff161415610b0f576040517f08c379a0000000000000000000000000000000000000000000000000000000008152600401610b0690613a94565b60405180910390fd5b8073ffffffffffffffffffffffffffffffffffffffff16610b2e611dca565b73ffffffffffffffffffffffffffffffffffffffff161480610b5d5750610b5c81610b57611dca565b611b45565b5b610b9c576040517f08c379a0000000000000000000000000000000000000000000000000000000008152600401610b9390613934565b60405180910390fd5b610ba68383611dd2565b505050565b610bb3611dca565b73ffffffffffffffffffffffffffffffffffffffff16610bd161127a565b73ffffffffffffffffffffffffffffffffffffffff1614610c27576040517f08c379a0000000000000000000000000000000000000000000000000000000008152600401610c1e90613a34565b60405180910390fd5b610c318282611e8b565b5050565b60125481565b610c4c610c46611dca565b82611eff565b610c8b576040517f08c379a0000000000000000000000000000000000000000000000000000000008152600401610c8290613ab4565b60405180910390fd5b610c96838383611fdd565b505050565b600080600060086040518060400160405290816000820160009054906101000a900473ffffffffffffffffffffffffffffffffffffffff1673ffffffffffffffffffffffffffffffffffffffff1673ffffffffffffffffffffffffffffffffffffffff1681526020016000820160149054906101000a900462ffffff1662ffffff1662ffffff1681525050905080600001519250612710816020015162ffffff1685610d479190613c95565b610d519190613c64565b9150509250929050565b600b5481565b610d7c8383836040518060200160405280600081525061177a565b505050565b601160019054906101000a900460ff1681565b610d9c611dca565b73ffffffffffffffffffffffffffffffffffffffff16610dba61127a565b73ffffffffffffffffffffffffffffffffffffffff1614610e10576040517f08c379a0000000000000000000000000000000000000000000000000000000008152600401610e0790613a34565b60405180910390fd5b80600e9080519060200190610e26929190612d57565b5050565b601160009054906101000a900460ff1681565b6000806002600084815260200190815260200160002060009054906101000a900473ffffffffffffffffffffffffffffffffffffffff169050600073ffffffffffffffffffffffffffffffffffffffff168173ffffffffffffffffffffffffffffffffffffffff161415610ee6576040517f08c379a0000000000000000000000000000000000000000000000000000000008152600401610edd90613974565b60405180910390fd5b80915050919050565b600e8054610efc90613dd9565b80601f0160208091040260200160405190810160405280929190818152602001828054610f2890613dd9565b8015610f755780601f10610f4a57610100808354040283529160200191610f75565b820191906000526020600020905b815481529060010190602001808311610f5857829003601f168201915b505050505081565b60008073ffffffffffffffffffffffffffffffffffffffff168273ffffffffffffffffffffffffffffffffffffffff161415610fee576040517f08c379a0000000000000000000000000000000000000000000000000000000008152600401610fe590613954565b60405180910390fd5b600360008373ffffffffffffffffffffffffffffffffffffffff1673ffffffffffffffffffffffffffffffffffffffff168152602001908152602001600020549050919050565b61103d611dca565b73ffffffffffffffffffffffffffffffffffffffff1661105b61127a565b73ffffffffffffffffffffffffffffffffffffffff16146110b1576040517f08c379a00000000000000000000000000000000000000000000000000000000081526004016110a890613a34565b60405180910390fd5b6110bb6000612239565b565b600a5481565b6110cb611dca565b73ffffffffffffffffffffffffffffffffffffffff166110e961127a565b73ffffffffffffffffffffffffffffffffffffffff161461113f576040517f08c379a000000000000000000000000000000000000000000000000000000000815260040161113690613a34565b60405180910390fd5b81600a8190555080600b819055505050565b600d5481565b61115f611dca565b73ffffffffffffffffffffffffffffffffffffffff1661117d61127a565b73ffffffffffffffffffffffffffffffffffffffff16146111d3576040517f08c379a00000000000000000000000000000000000000000000000000000000081526004016111ca90613a34565b60405180910390fd5b6001601160006101000a81548160ff021916908315150217905550565b6111f8611dca565b73ffffffffffffffffffffffffffffffffffffffff1661121661127a565b73ffffffffffffffffffffffffffffffffffffffff161461126c576040517f08c379a000000000000000000000000000000000000000000000000000000000815260040161126390613a34565b60405180910390fd5b61127682826122ff565b5050565b6000600760009054906101000a900473ffffffffffffffffffffffffffffffffffffffff16905090565b6112ac611dca565b73ffffffffffffffffffffffffffffffffffffffff166112ca61127a565b73ffffffffffffffffffffffffffffffffffffffff1614611320576040517f08c379a000000000000000000000000000000000000000000000000000000000815260040161131790613a34565b60405180910390fd5b80601160016101000a81548160ff02191690831515021790555050565b60606001805461134c90613dd9565b80601f016020809104026020016040519081016040528092919081815260200182805461137890613dd9565b80156113c55780601f1061139a576101008083540402835291602001916113c5565b820191906000526020600020905b8154815290600101906020018083116113a857829003601f168201915b5050505050905090565b6113e16113da611dca565b83836123e9565b5050565b60006113f16009612556565b9050601160009054906101000a900460ff1615611443576040517f08c379a000000000000000000000000000000000000000000000000000000000815260040161143a90613ad4565b60405180910390fd5b61144b61127a565b73ffffffffffffffffffffffffffffffffffffffff163373ffffffffffffffffffffffffffffffffffffffff1614156114b9576040517f08c379a00000000000000000000000000000000000000000000000000000000081526004016114b090613a14565b60405180910390fd5b6012544210156114cd57600b54600a819055505b600b543410156114de600b54612564565b6040516020016114ee919061373a565b6040516020818303038152906040529061153e576040517f08c379a00000000000000000000000000000000000000000000000000000000081526004016115359190613812565b60405180910390fd5b5061154761127a565b73ffffffffffffffffffffffffffffffffffffffff166108fc349081150290604051600060405180830381858888f1935050505015801561158c573d6000803e3d6000fd5b507f010b29805dab42281100bcf572a75eefa28f55357f42f469d30e8bba4822cfe933826040516115be9291906137ce565b60405180910390a16115d03382612711565b6115da600961272f565b50565b6115e5611dca565b73ffffffffffffffffffffffffffffffffffffffff1661160361127a565b73ffffffffffffffffffffffffffffffffffffffff1614611659576040517f08c379a000000000000000000000000000000000000000000000000000000000815260040161165090613a34565b60405180910390fd5b601160009054906101000a900460ff16156116a9576040517f08c379a00000000000000000000000000000000000000000000000000000000081526004016116a090613ad4565b60405180910390fd5b600081116116ec576040517f08c379a00000000000000000000000000000000000000000000000000000000081526004016116e3906139b4565b60405180910390fd5b600c54811115611731576040517f08c379a0000000000000000000000000000000000000000000000000000000008152600401611728906138f4565b60405180910390fd5b6000600190505b81811161177557600061174b6009612556565b90506117578482612711565b611761600961272f565b50808061176d90613e3c565b915050611738565b505050565b61178b611785611dca565b83611eff565b6117ca576040517f08c379a00000000000000000000000000000000000000000000000000000000081526004016117c190613ab4565b60405180910390fd5b6117d684848484612745565b50505050565b6000600b54905090565b6117ee611dca565b73ffffffffffffffffffffffffffffffffffffffff1661180c61127a565b73ffffffffffffffffffffffffffffffffffffffff1614611862576040517f08c379a000000000000000000000000000000000000000000000000000000000815260040161185990613a34565b60405180910390fd5b8060109080519060200190611878929190612d57565b5050565b611884611dca565b73ffffffffffffffffffffffffffffffffffffffff166118a261127a565b73ffffffffffffffffffffffffffffffffffffffff16146118f8576040517f08c379a00000000000000000000000000000000000000000000000000000000081526004016118ef90613a34565b60405180910390fd5b80601160026101000a81548160ff02191690831515021790555050565b600f805461192290613dd9565b80601f016020809104026020016040519081016040528092919081815260200182805461194e90613dd9565b801561199b5780601f106119705761010080835404028352916020019161199b565b820191906000526020600020905b81548152906001019060200180831161197e57829003601f168201915b505050505081565b60606119ae82611d5e565b6119ed576040517f08c379a00000000000000000000000000000000000000000000000000000000081526004016119e490613a74565b60405180910390fd5b6119f76009612556565b8210611a38576040517f08c379a0000000000000000000000000000000000000000000000000000000008152600401611a2f90613af4565b60405180910390fd5b601160019054906101000a900460ff16611ade5760108054611a5990613dd9565b80601f0160208091040260200160405190810160405280929190818152602001828054611a8590613dd9565b8015611ad25780601f10611aa757610100808354040283529160200191611ad2565b820191906000526020600020905b815481529060010190602001808311611ab557829003601f168201915b50505050509050611b3a565b6000611ae86127a1565b90506000815111611b085760405180602001604052806000815250611b36565b80611b1284612564565b600f604051602001611b2693929190613709565b6040516020818303038152906040525b9150505b919050565b600c5481565b6000600560008473ffffffffffffffffffffffffffffffffffffffff1673ffffffffffffffffffffffffffffffffffffffff16815260200190815260200160002060008373ffffffffffffffffffffffffffffffffffffffff1673ffffffffffffffffffffffffffffffffffffffff16815260200190815260200160002060009054906101000a900460ff16905092915050565b611be1611dca565b73ffffffffffffffffffffffffffffffffffffffff16611bff61127a565b73ffffffffffffffffffffffffffffffffffffffff1614611c55576040517f08c379a0000000000000000000000000000000000000000000000000000000008152600401611c4c90613a34565b60405180910390fd5b600073ffffffffffffffffffffffffffffffffffffffff168173ffffffffffffffffffffffffffffffffffffffff161415611cc5576040517f08c379a0000000000000000000000000000000000000000000000000000000008152600401611cbc90613874565b60405180910390fd5b611cce81612239565b50565b601160029054906101000a900460ff1681565b60007f2a55205a000000000000000000000000000000000000000000000000000000007bffffffffffffffffffffffffffffffffffffffffffffffffffffffff1916827bffffffffffffffffffffffffffffffffffffffffffffffffffffffff19161480611d575750611d5682612833565b5b9050919050565b60008073ffffffffffffffffffffffffffffffffffffffff166002600084815260200190815260200160002060009054906101000a900473ffffffffffffffffffffffffffffffffffffffff1673ffffffffffffffffffffffffffffffffffffffff1614159050919050565b600033905090565b816004600083815260200190815260200160002060006101000a81548173ffffffffffffffffffffffffffffffffffffffff021916908373ffffffffffffffffffffffffffffffffffffffff160217905550808273ffffffffffffffffffffffffffffffffffffffff16611e4583610e3d565b73ffffffffffffffffffffffffffffffffffffffff167f8c5be1e5ebec7d5bd14f71427d1e84f3dd0314c0f7b2291e5b200ac8c7c3b92560405160405180910390a45050565b611e9482611d5e565b611ed3576040517f08c379a0000000000000000000000000000000000000000000000000000000008152600401611eca90613994565b60405180910390fd5b80600660008481526020019081526020016000209080519060200190611efa929190612d57565b505050565b6000611f0a82611d5e565b611f49576040517f08c379a0000000000000000000000000000000000000000000000000000000008152600401611f4090613914565b60405180910390fd5b6000611f5483610e3d565b90508073ffffffffffffffffffffffffffffffffffffffff168473ffffffffffffffffffffffffffffffffffffffff161480611fc357508373ffffffffffffffffffffffffffffffffffffffff16611fab84610980565b73ffffffffffffffffffffffffffffffffffffffff16145b80611fd45750611fd38185611b45565b5b91505092915050565b8273ffffffffffffffffffffffffffffffffffffffff16611ffd82610e3d565b73ffffffffffffffffffffffffffffffffffffffff1614612053576040517f08c379a000000000000000000000000000000000000000000000000000000000815260040161204a90613a54565b60405180910390fd5b600073ffffffffffffffffffffffffffffffffffffffff168273ffffffffffffffffffffffffffffffffffffffff1614156120c3576040517f08c379a00000000000000000000000000000000000000000000000000000000081526004016120ba906138b4565b60405180910390fd5b6120ce838383612915565b6120d9600082611dd2565b6001600360008573ffffffffffffffffffffffffffffffffffffffff1673ffffffffffffffffffffffffffffffffffffffff16815260200190815260200160002060008282546121299190613cef565b925050819055506001600360008473ffffffffffffffffffffffffffffffffffffffff1673ffffffffffffffffffffffffffffffffffffffff16815260200190815260200160002060008282546121809190613c0e565b92505081905550816002600083815260200190815260200160002060006101000a81548173ffffffffffffffffffffffffffffffffffffffff021916908373ffffffffffffffffffffffffffffffffffffffff160217905550808273ffffffffffffffffffffffffffffffffffffffff168473ffffffffffffffffffffffffffffffffffffffff167fddf252ad1be2c89b69c2b068fc378daa952ba7f163c4a11628f55a4df523b3ef60405160405180910390a4505050565b6000600760009054906101000a900473ffffffffffffffffffffffffffffffffffffffff16905081600760006101000a81548173ffffffffffffffffffffffffffffffffffffffff021916908373ffffffffffffffffffffffffffffffffffffffff1602179055508173ffffffffffffffffffffffffffffffffffffffff168173ffffffffffffffffffffffffffffffffffffffff167f8be0079c531659141344cd1fd0a4f28419497f9722a3daafe3b4186f6b6457e060405160405180910390a35050565b612710811115612344576040517f08c379a000000000000000000000000000000000000000000000000000000000815260040161233b90613834565b60405180910390fd5b60405180604001604052808373ffffffffffffffffffffffffffffffffffffffff1681526020018262ffffff16815250600860008201518160000160006101000a81548173ffffffffffffffffffffffffffffffffffffffff021916908373ffffffffffffffffffffffffffffffffffffffff16021790555060208201518160000160146101000a81548162ffffff021916908362ffffff1602179055509050505050565b8173ffffffffffffffffffffffffffffffffffffffff168373ffffffffffffffffffffffffffffffffffffffff161415612458576040517f08c379a000000000000000000000000000000000000000000000000000000000815260040161244f906138d4565b60405180910390fd5b80600560008573ffffffffffffffffffffffffffffffffffffffff1673ffffffffffffffffffffffffffffffffffffffff16815260200190815260200160002060008473ffffffffffffffffffffffffffffffffffffffff1673ffffffffffffffffffffffffffffffffffffffff16815260200190815260200160002060006101000a81548160ff0219169083151502179055508173ffffffffffffffffffffffffffffffffffffffff168373ffffffffffffffffffffffffffffffffffffffff167f17307eab39ab6107e8899845ad3d59bd9653f200f220920489ca2b5937696c318360405161254991906137f7565b60405180910390a3505050565b600081600001549050919050565b606060008214156125ac576040518060400160405280600181526020017f3000000000000000000000000000000000000000000000000000000000000000815250905061270c565b600082905060005b600082146125de5780806125c790613e3c565b915050600a826125d79190613c64565b91506125b4565b60008167ffffffffffffffff811115612620577f4e487b7100000000000000000000000000000000000000000000000000000000600052604160045260246000fd5b6040519080825280601f01601f1916602001820160405280156126525781602001600182028036833780820191505090505b5090505b600085146127055760018261266b9190613cef565b9150600a8561267a9190613e85565b60306126869190613c0e565b60f81b8183815181106126c2577f4e487b7100000000000000000000000000000000000000000000000000000000600052603260045260246000fd5b60200101907effffffffffffffffffffffffffffffffffffffffffffffffffffffffffffff1916908160001a905350600a856126fe9190613c64565b9450612656565b8093505050505b919050565b61272b82826040518060200160405280600081525061291a565b5050565b6001816000016000828254019250508190555050565b612750848484611fdd565b61275c84848484612975565b61279b576040517f08c379a000000000000000000000000000000000000000000000000000000000815260040161279290613854565b60405180910390fd5b50505050565b6060600e80546127b090613dd9565b80601f01602080910402602001604051908101604052809291908181526020018280546127dc90613dd9565b80156128295780601f106127fe57610100808354040283529160200191612829565b820191906000526020600020905b81548152906001019060200180831161280c57829003601f168201915b5050505050905090565b60007f80ac58cd000000000000000000000000000000000000000000000000000000007bffffffffffffffffffffffffffffffffffffffffffffffffffffffff1916827bffffffffffffffffffffffffffffffffffffffffffffffffffffffff191614806128fe57507f5b5e139f000000000000000000000000000000000000000000000000000000007bffffffffffffffffffffffffffffffffffffffffffffffffffffffff1916827bffffffffffffffffffffffffffffffffffffffffffffffffffffffff1916145b8061290e575061290d82612b0c565b5b9050919050565b505050565b6129248383612b76565b6129316000848484612975565b612970576040517f08c379a000000000000000000000000000000000000000000000000000000000815260040161296790613854565b60405180910390fd5b505050565b60006129968473ffffffffffffffffffffffffffffffffffffffff16612d44565b15612aff578373ffffffffffffffffffffffffffffffffffffffff1663150b7a026129bf611dca565b8786866040518563ffffffff1660e01b81526004016129e19493929190613782565b602060405180830381600087803b1580156129fb57600080fd5b505af1925050508015612a2c57506040513d601f19601f82011682018060405250810190612a29919061312c565b60015b612aaf573d8060008114612a5c576040519150601f19603f3d011682016040523d82523d6000602084013e612a61565b606091505b50600081511415612aa7576040517f08c379a0000000000000000000000000000000000000000000000000000000008152600401612a9e90613854565b60405180910390fd5b805181602001fd5b63150b7a0260e01b7bffffffffffffffffffffffffffffffffffffffffffffffffffffffff1916817bffffffffffffffffffffffffffffffffffffffffffffffffffffffff191614915050612b04565b600190505b949350505050565b60007f01ffc9a7000000000000000000000000000000000000000000000000000000007bffffffffffffffffffffffffffffffffffffffffffffffffffffffff1916827bffffffffffffffffffffffffffffffffffffffffffffffffffffffff1916149050919050565b600073ffffffffffffffffffffffffffffffffffffffff168273ffffffffffffffffffffffffffffffffffffffff161415612be6576040517f08c379a0000000000000000000000000000000000000000000000000000000008152600401612bdd906139d4565b60405180910390fd5b612bef81611d5e565b15612c2f576040517f08c379a0000000000000000000000000000000000000000000000000000000008152600401612c2690613894565b60405180910390fd5b612c3b60008383612915565b6001600360008473ffffffffffffffffffffffffffffffffffffffff1673ffffffffffffffffffffffffffffffffffffffff1681526020019081526020016000206000828254612c8b9190613c0e565b92505081905550816002600083815260200190815260200160002060006101000a81548173ffffffffffffffffffffffffffffffffffffffff021916908373ffffffffffffffffffffffffffffffffffffffff160217905550808273ffffffffffffffffffffffffffffffffffffffff16600073ffffffffffffffffffffffffffffffffffffffff167fddf252ad1be2c89b69c2b068fc378daa952ba7f163c4a11628f55a4df523b3ef60405160405180910390a45050565b600080823b905060008111915050919050565b828054612d6390613dd9565b90600052602060002090601f016020900481019282612d855760008555612dcc565b82601f10612d9e57805160ff1916838001178555612dcc565b82800160010185558215612dcc579182015b82811115612dcb578251825591602001919060010190612db0565b5b509050612dd99190612ddd565b5090565b5b80821115612df6576000816000905550600101612dde565b5090565b6000612e0d612e0884613b54565b613b2f565b905082815260208101848484011115612e2557600080fd5b612e30848285613d97565b509392505050565b6000612e4b612e4684613b85565b613b2f565b905082815260208101848484011115612e6357600080fd5b612e6e848285613d97565b509392505050565b600081359050612e85816145e4565b92915050565b600081359050612e9a816145fb565b92915050565b600081359050612eaf81614612565b92915050565b600081519050612ec481614612565b92915050565b600082601f830112612edb57600080fd5b8135612eeb848260208601612dfa565b91505092915050565b600082601f830112612f0557600080fd5b8135612f15848260208601612e38565b91505092915050565b600081359050612f2d81614629565b92915050565b600060208284031215612f4557600080fd5b6000612f5384828501612e76565b91505092915050565b60008060408385031215612f6f57600080fd5b6000612f7d85828601612e76565b9250506020612f8e85828601612e76565b9150509250929050565b600080600060608486031215612fad57600080fd5b6000612fbb86828701612e76565b9350506020612fcc86828701612e76565b9250506040612fdd86828701612f1e565b9150509250925092565b60008060008060808587031215612ffd57600080fd5b600061300b87828801612e76565b945050602061301c87828801612e76565b935050604061302d87828801612f1e565b925050606085013567ffffffffffffffff81111561304a57600080fd5b61305687828801612eca565b91505092959194509250565b6000806040838503121561307557600080fd5b600061308385828601612e76565b925050602061309485828601612e8b565b9150509250929050565b600080604083850312156130b157600080fd5b60006130bf85828601612e76565b92505060206130d085828601612f1e565b9150509250929050565b6000602082840312156130ec57600080fd5b60006130fa84828501612e8b565b91505092915050565b60006020828403121561311557600080fd5b600061312384828501612ea0565b91505092915050565b60006020828403121561313e57600080fd5b600061314c84828501612eb5565b91505092915050565b60006020828403121561316757600080fd5b600082013567ffffffffffffffff81111561318157600080fd5b61318d84828501612ef4565b91505092915050565b6000602082840312156131a857600080fd5b60006131b684828501612f1e565b91505092915050565b600080604083850312156131d257600080fd5b60006131e085828601612f1e565b925050602083013567ffffffffffffffff8111156131fd57600080fd5b61320985828601612ef4565b9150509250929050565b6000806040838503121561322657600080fd5b600061323485828601612f1e565b925050602061324585828601612f1e565b9150509250929050565b61325881613d23565b82525050565b61326781613d35565b82525050565b600061327882613bcb565b6132828185613be1565b9350613292818560208601613da6565b61329b81613f72565b840191505092915050565b60006132b182613bd6565b6132bb8185613bf2565b93506132cb818560208601613da6565b6132d481613f72565b840191505092915050565b60006132ea82613bd6565b6132f48185613c03565b9350613304818560208601613da6565b80840191505092915050565b6000815461331d81613dd9565b6133278186613c03565b94506001821660008114613342576001811461335357613386565b60ff19831686528186019350613386565b61335c85613bb6565b60005b8381101561337e5781548189015260018201915060208101905061335f565b838801955050505b50505092915050565b600061339c601a83613bf2565b91506133a782613f83565b602082019050919050565b60006133bf603283613bf2565b91506133ca82613fac565b604082019050919050565b60006133e2602683613bf2565b91506133ed82613ffb565b604082019050919050565b6000613405601c83613bf2565b91506134108261404a565b602082019050919050565b6000613428602483613bf2565b915061343382614073565b604082019050919050565b600061344b601983613bf2565b9150613456826140c2565b602082019050919050565b600061346e603483613bf2565b9150613479826140eb565b604082019050919050565b6000613491602c83613bf2565b915061349c8261413a565b604082019050919050565b60006134b4601383613c03565b91506134bf82614189565b601382019050919050565b60006134d7603883613bf2565b91506134e2826141b2565b604082019050919050565b60006134fa602a83613bf2565b915061350582614201565b604082019050919050565b600061351d602983613bf2565b915061352882614250565b604082019050919050565b6000613540602e83613bf2565b915061354b8261429f565b604082019050919050565b6000613563602283613bf2565b915061356e826142ee565b604082019050919050565b6000613586602083613bf2565b91506135918261433d565b602082019050919050565b60006135a9602c83613bf2565b91506135b482614366565b604082019050919050565b60006135cc601b83613bf2565b91506135d7826143b5565b602082019050919050565b60006135ef602083613bf2565b91506135fa826143de565b602082019050919050565b6000613612602983613bf2565b915061361d82614407565b604082019050919050565b6000613635602f83613bf2565b915061364082614456565b604082019050919050565b6000613658601283613c03565b9150613663826144a5565b601282019050919050565b600061367b602183613bf2565b9150613686826144ce565b604082019050919050565b600061369e603183613bf2565b91506136a98261451d565b604082019050919050565b60006136c1601183613bf2565b91506136cc8261456c565b602082019050919050565b60006136e4602b83613bf2565b91506136ef82614595565b604082019050919050565b61370381613d8d565b82525050565b600061371582866132df565b915061372182856132df565b915061372d8284613310565b9150819050949350505050565b6000613745826134a7565b915061375182846132df565b915061375c8261364b565b915081905092915050565b600060208201905061377c600083018461324f565b92915050565b6000608082019050613797600083018761324f565b6137a4602083018661324f565b6137b160408301856136fa565b81810360608301526137c3818461326d565b905095945050505050565b60006040820190506137e3600083018561324f565b6137f060208301846136fa565b9392505050565b600060208201905061380c600083018461325e565b92915050565b6000602082019050818103600083015261382c81846132a6565b905092915050565b6000602082019050818103600083015261384d8161338f565b9050919050565b6000602082019050818103600083015261386d816133b2565b9050919050565b6000602082019050818103600083015261388d816133d5565b9050919050565b600060208201905081810360008301526138ad816133f8565b9050919050565b600060208201905081810360008301526138cd8161341b565b9050919050565b600060208201905081810360008301526138ed8161343e565b9050919050565b6000602082019050818103600083015261390d81613461565b9050919050565b6000602082019050818103600083015261392d81613484565b9050919050565b6000602082019050818103600083015261394d816134ca565b9050919050565b6000602082019050818103600083015261396d816134ed565b9050919050565b6000602082019050818103600083015261398d81613510565b9050919050565b600060208201905081810360008301526139ad81613533565b9050919050565b600060208201905081810360008301526139cd81613556565b9050919050565b600060208201905081810360008301526139ed81613579565b9050919050565b60006020820190508181036000830152613a0d8161359c565b9050919050565b60006020820190508181036000830152613a2d816135bf565b9050919050565b60006020820190508181036000830152613a4d816135e2565b9050919050565b60006020820190508181036000830152613a6d81613605565b9050919050565b60006020820190508181036000830152613a8d81613628565b9050919050565b60006020820190508181036000830152613aad8161366e565b9050919050565b60006020820190508181036000830152613acd81613691565b9050919050565b60006020820190508181036000830152613aed816136b4565b9050919050565b60006020820190508181036000830152613b0d816136d7565b9050919050565b6000602082019050613b2960008301846136fa565b92915050565b6000613b39613b4a565b9050613b458282613e0b565b919050565b6000604051905090565b600067ffffffffffffffff821115613b6f57613b6e613f43565b5b613b7882613f72565b9050602081019050919050565b600067ffffffffffffffff821115613ba057613b9f613f43565b5b613ba982613f72565b9050602081019050919050565b60008190508160005260206000209050919050565b600081519050919050565b600081519050919050565b600082825260208201905092915050565b600082825260208201905092915050565b600081905092915050565b6000613c1982613d8d565b9150613c2483613d8d565b9250827fffffffffffffffffffffffffffffffffffffffffffffffffffffffffffffffff03821115613c5957613c58613eb6565b5b828201905092915050565b6000613c6f82613d8d565b9150613c7a83613d8d565b925082613c8a57613c89613ee5565b5b828204905092915050565b6000613ca082613d8d565b9150613cab83613d8d565b9250817fffffffffffffffffffffffffffffffffffffffffffffffffffffffffffffffff0483118215151615613ce457613ce3613eb6565b5b828202905092915050565b6000613cfa82613d8d565b9150613d0583613d8d565b925082821015613d1857613d17613eb6565b5b828203905092915050565b6000613d2e82613d6d565b9050919050565b60008115159050919050565b60007fffffffff0000000000000000000000000000000000000000000000000000000082169050919050565b600073ffffffffffffffffffffffffffffffffffffffff82169050919050565b6000819050919050565b82818337600083830152505050565b60005b83811015613dc4578082015181840152602081019050613da9565b83811115613dd3576000848401525b50505050565b60006002820490506001821680613df157607f821691505b60208210811415613e0557613e04613f14565b5b50919050565b613e1482613f72565b810181811067ffffffffffffffff82111715613e3357613e32613f43565b5b80604052505050565b6000613e4782613d8d565b91507fffffffffffffffffffffffffffffffffffffffffffffffffffffffffffffffff821415613e7a57613e79613eb6565b5b600182019050919050565b6000613e9082613d8d565b9150613e9b83613d8d565b925082613eab57613eaa613ee5565b5b828206905092915050565b7f4e487b7100000000000000000000000000000000000000000000000000000000600052601160045260246000fd5b7f4e487b7100000000000000000000000000000000000000000000000000000000600052601260045260246000fd5b7f4e487b7100000000000000000000000000000000000000000000000000000000600052602260045260246000fd5b7f4e487b7100000000000000000000000000000000000000000000000000000000600052604160045260246000fd5b6000601f19601f8301169050919050565b7f45524332393831526f79616c746965733a20546f6f2068696768000000000000600082015250565b7f4552433732313a207472616e7366657220746f206e6f6e20455243373231526560008201527f63656976657220696d706c656d656e7465720000000000000000000000000000602082015250565b7f4f776e61626c653a206e6577206f776e657220697320746865207a65726f206160008201527f6464726573730000000000000000000000000000000000000000000000000000602082015250565b7f4552433732313a20746f6b656e20616c7265616479206d696e74656400000000600082015250565b7f4552433732313a207472616e7366657220746f20746865207a65726f2061646460008201527f7265737300000000000000000000000000000000000000000000000000000000602082015250565b7f4552433732313a20617070726f766520746f2063616c6c657200000000000000600082015250565b7f4d696e7420616d6f756e74206d757374206265206c657373207468616e206f7260008201527f20657175616c20746f206d617820737570706c79000000000000000000000000602082015250565b7f4552433732313a206f70657261746f7220717565727920666f72206e6f6e657860008201527f697374656e7420746f6b656e0000000000000000000000000000000000000000602082015250565b7f4d7573742073656e64206174206c656173742000000000000000000000000000600082015250565b7f4552433732313a20617070726f76652063616c6c6572206973206e6f74206f7760008201527f6e6572206e6f7220617070726f76656420666f7220616c6c0000000000000000602082015250565b7f4552433732313a2062616c616e636520717565727920666f7220746865207a6560008201527f726f206164647265737300000000000000000000000000000000000000000000602082015250565b7f4552433732313a206f776e657220717565727920666f72206e6f6e657869737460008201527f656e7420746f6b656e0000000000000000000000000000000000000000000000602082015250565b7f45524337323155524953746f726167653a2055524920736574206f66206e6f6e60008201527f6578697374656e7420746f6b656e000000000000000000000000000000000000602082015250565b7f4d696e7420616d6f756e74206d7573742062652067726561746572207468616e60008201527f2030000000000000000000000000000000000000000000000000000000000000602082015250565b7f4552433732313a206d696e7420746f20746865207a65726f2061646472657373600082015250565b7f4552433732313a20617070726f76656420717565727920666f72206e6f6e657860008201527f697374656e7420746f6b656e0000000000000000000000000000000000000000602082015250565b7f596f752063616e2774206d696e742061706520746f2061646d696e0000000000600082015250565b7f4f776e61626c653a2063616c6c6572206973206e6f7420746865206f776e6572600082015250565b7f4552433732313a207472616e73666572206f6620746f6b656e2074686174206960008201527f73206e6f74206f776e0000000000000000000000000000000000000000000000602082015250565b7f4552433732314d657461646174613a2055524920717565727920666f72206e6f60008201527f6e6578697374656e7420746f6b656e0000000000000000000000000000000000602082015250565b7f20657468657220746f2070757263686173650000000000000000000000000000600082015250565b7f4552433732313a20617070726f76616c20746f2063757272656e74206f776e6560008201527f7200000000000000000000000000000000000000000000000000000000000000602082015250565b7f4552433732313a207472616e736665722063616c6c6572206973206e6f74206f60008201527f776e6572206e6f7220617070726f766564000000000000000000000000000000602082015250565b7f4d696e74696e6720697320706175736564000000000000000000000000000000600082015250565b7f546f6b656e204944206d757374206265206c657373207468616e20746865207460008201527f6f74616c20737570706c79000000000000000000000000000000000000000000602082015250565b6145ed81613d23565b81146145f857600080fd5b50565b61460481613d35565b811461460f57600080fd5b50565b61461b81613d41565b811461462657600080fd5b50565b61463281613d8d565b811461463d57600080fd5b5056fea2646970667358221220ff0830dd8631f601ed35b1f548560348d4121e077f8b9b0ce42b0fe2a3ad554d64736f6c63430008020033",
    "linkReferences": {},
    "deployedLinkReferences": {}
}